{
  "_format": "hh-sol-artifact-1",
  "contractName": "randomNFT",
  "sourceName": "contracts/randomNFT.sol",
  "abi": [
    {
      "inputs": [],
      "stateMutability": "nonpayable",
      "type": "constructor"
    },
    {
      "anonymous": false,
      "inputs": [
        {
          "indexed": true,
          "internalType": "address",
          "name": "owner",
          "type": "address"
        },
        {
          "indexed": true,
          "internalType": "address",
          "name": "approved",
          "type": "address"
        },
        {
          "indexed": true,
          "internalType": "uint256",
          "name": "tokenId",
          "type": "uint256"
        }
      ],
      "name": "Approval",
      "type": "event"
    },
    {
      "anonymous": false,
      "inputs": [
        {
          "indexed": true,
          "internalType": "address",
          "name": "owner",
          "type": "address"
        },
        {
          "indexed": true,
          "internalType": "address",
          "name": "operator",
          "type": "address"
        },
        {
          "indexed": false,
          "internalType": "bool",
          "name": "approved",
          "type": "bool"
        }
      ],
      "name": "ApprovalForAll",
      "type": "event"
    },
    {
      "anonymous": false,
      "inputs": [
        {
          "indexed": false,
          "internalType": "address",
          "name": "sender",
          "type": "address"
        },
        {
          "indexed": false,
          "internalType": "uint256",
          "name": "tokenId",
          "type": "uint256"
        }
      ],
      "name": "NewRandomNFT",
      "type": "event"
    },
    {
      "anonymous": false,
      "inputs": [
        {
          "indexed": true,
          "internalType": "address",
          "name": "from",
          "type": "address"
        },
        {
          "indexed": true,
          "internalType": "address",
          "name": "to",
          "type": "address"
        },
        {
          "indexed": true,
          "internalType": "uint256",
          "name": "tokenId",
          "type": "uint256"
        }
      ],
      "name": "Transfer",
      "type": "event"
    },
    {
      "inputs": [
        {
          "internalType": "address",
          "name": "to",
          "type": "address"
        },
        {
          "internalType": "uint256",
          "name": "tokenId",
          "type": "uint256"
        }
      ],
      "name": "approve",
      "outputs": [],
      "stateMutability": "nonpayable",
      "type": "function"
    },
    {
      "inputs": [
        {
          "internalType": "address",
          "name": "owner",
          "type": "address"
        }
      ],
      "name": "balanceOf",
      "outputs": [
        {
          "internalType": "uint256",
          "name": "",
          "type": "uint256"
        }
      ],
      "stateMutability": "view",
      "type": "function"
    },
    {
      "inputs": [
        {
          "internalType": "uint256",
          "name": "tokenId",
          "type": "uint256"
        }
      ],
      "name": "getApproved",
      "outputs": [
        {
          "internalType": "address",
          "name": "",
          "type": "address"
        }
      ],
      "stateMutability": "view",
      "type": "function"
    },
    {
      "inputs": [],
      "name": "getTotalMints",
      "outputs": [
        {
          "internalType": "uint256",
          "name": "",
          "type": "uint256"
        }
      ],
      "stateMutability": "view",
      "type": "function"
    },
    {
      "inputs": [
        {
          "internalType": "address",
          "name": "owner",
          "type": "address"
        },
        {
          "internalType": "address",
          "name": "operator",
          "type": "address"
        }
      ],
      "name": "isApprovedForAll",
      "outputs": [
        {
          "internalType": "bool",
          "name": "",
          "type": "bool"
        }
      ],
      "stateMutability": "view",
      "type": "function"
    },
    {
      "inputs": [],
      "name": "makeARandomNFT",
      "outputs": [],
      "stateMutability": "nonpayable",
      "type": "function"
    },
    {
      "inputs": [],
      "name": "name",
      "outputs": [
        {
          "internalType": "string",
          "name": "",
          "type": "string"
        }
      ],
      "stateMutability": "view",
      "type": "function"
    },
    {
      "inputs": [
        {
          "internalType": "uint256",
          "name": "tokenId",
          "type": "uint256"
        }
      ],
      "name": "ownerOf",
      "outputs": [
        {
          "internalType": "address",
          "name": "",
          "type": "address"
        }
      ],
      "stateMutability": "view",
      "type": "function"
    },
    {
      "inputs": [
        {
          "internalType": "uint256",
          "name": "tokenId",
          "type": "uint256"
        }
      ],
      "name": "pickRandomFirstWord",
      "outputs": [
        {
          "internalType": "string",
          "name": "",
          "type": "string"
        }
      ],
      "stateMutability": "view",
      "type": "function"
    },
    {
      "inputs": [
        {
          "internalType": "uint256",
          "name": "tokenId",
          "type": "uint256"
        }
      ],
      "name": "pickRandomSecondWord",
      "outputs": [
        {
          "internalType": "string",
          "name": "",
          "type": "string"
        }
      ],
      "stateMutability": "view",
      "type": "function"
    },
    {
      "inputs": [
        {
          "internalType": "uint256",
          "name": "tokenId",
          "type": "uint256"
        }
      ],
      "name": "pickRandomShapeColor",
      "outputs": [
        {
          "internalType": "string",
          "name": "",
          "type": "string"
        }
      ],
      "stateMutability": "view",
      "type": "function"
    },
    {
      "inputs": [
        {
          "internalType": "uint256",
          "name": "tokenId",
          "type": "uint256"
        }
      ],
      "name": "pickRandomThirdWord",
      "outputs": [
        {
          "internalType": "string",
          "name": "",
          "type": "string"
        }
      ],
      "stateMutability": "view",
      "type": "function"
    },
    {
      "inputs": [
        {
          "internalType": "address",
          "name": "from",
          "type": "address"
        },
        {
          "internalType": "address",
          "name": "to",
          "type": "address"
        },
        {
          "internalType": "uint256",
          "name": "tokenId",
          "type": "uint256"
        }
      ],
      "name": "safeTransferFrom",
      "outputs": [],
      "stateMutability": "nonpayable",
      "type": "function"
    },
    {
      "inputs": [
        {
          "internalType": "address",
          "name": "from",
          "type": "address"
        },
        {
          "internalType": "address",
          "name": "to",
          "type": "address"
        },
        {
          "internalType": "uint256",
          "name": "tokenId",
          "type": "uint256"
        },
        {
          "internalType": "bytes",
          "name": "_data",
          "type": "bytes"
        }
      ],
      "name": "safeTransferFrom",
      "outputs": [],
      "stateMutability": "nonpayable",
      "type": "function"
    },
    {
      "inputs": [
        {
          "internalType": "address",
          "name": "operator",
          "type": "address"
        },
        {
          "internalType": "bool",
          "name": "approved",
          "type": "bool"
        }
      ],
      "name": "setApprovalForAll",
      "outputs": [],
      "stateMutability": "nonpayable",
      "type": "function"
    },
    {
      "inputs": [
        {
          "internalType": "bytes4",
          "name": "interfaceId",
          "type": "bytes4"
        }
      ],
      "name": "supportsInterface",
      "outputs": [
        {
          "internalType": "bool",
          "name": "",
          "type": "bool"
        }
      ],
      "stateMutability": "view",
      "type": "function"
    },
    {
      "inputs": [],
      "name": "symbol",
      "outputs": [
        {
          "internalType": "string",
          "name": "",
          "type": "string"
        }
      ],
      "stateMutability": "view",
      "type": "function"
    },
    {
      "inputs": [
        {
          "internalType": "uint256",
          "name": "tokenId",
          "type": "uint256"
        }
      ],
      "name": "tokenURI",
      "outputs": [
        {
          "internalType": "string",
          "name": "",
          "type": "string"
        }
      ],
      "stateMutability": "view",
      "type": "function"
    },
    {
      "inputs": [
        {
          "internalType": "address",
          "name": "from",
          "type": "address"
        },
        {
          "internalType": "address",
          "name": "to",
          "type": "address"
        },
        {
          "internalType": "uint256",
          "name": "tokenId",
          "type": "uint256"
        }
      ],
      "name": "transferFrom",
      "outputs": [],
      "stateMutability": "nonpayable",
      "type": "function"
    }
  ],
  "bytecode": "0x60806040526040518060600160405280603e815260200162004ae4603e9139600890805190602001906200003592919062000aad565b5060405180610120016040528060ec8152602001620049f860ec9139600990805190602001906200006892919062000aad565b50604051806080016040528060518152602001620049a760519139600a90805190602001906200009a92919062000aad565b506040518061020001604052806040518060400160405280600781526020017f234641444235460000000000000000000000000000000000000000000000000081525081526020016040518060400160405280600781526020017f233244434341370000000000000000000000000000000000000000000000000081525081526020016040518060400160405280600781526020017f233341363644420000000000000000000000000000000000000000000000000081525081526020016040518060400160405280600781526020017f234131394646420000000000000000000000000000000000000000000000000081525081526020016040518060400160405280600781526020017f234639373033450000000000000000000000000000000000000000000000000081525081526020016040518060400160405280600781526020017f233331423233370000000000000000000000000000000000000000000000000081525081526020016040518060400160405280600881526020017f234646464646464400000000000000000000000000000000000000000000000081525081526020016040518060400160405280600781526020017f233743453633360000000000000000000000000000000000000000000000000081525081526020016040518060400160405280600781526020017f233836443446370000000000000000000000000000000000000000000000000081525081526020016040518060400160405280600781526020017f233832383238320000000000000000000000000000000000000000000000000081525081526020016040518060400160405280600781526020017f233832383238320000000000000000000000000000000000000000000000000081525081526020016040518060400160405280600781526020017f234131394646420000000000000000000000000000000000000000000000000081525081526020016040518060400160405280600781526020017f233943453439310000000000000000000000000000000000000000000000000081525081526020016040518060400160405280600781526020017f234543394646460000000000000000000000000000000000000000000000000081525081526020016040518060400160405280600781526020017f234542353735370000000000000000000000000000000000000000000000000081525081526020016040518060400160405280600781526020017f2345423537353700000000000000000000000000000000000000000000000000815250815250600b9060106200046792919062000b3e565b506040518060c001604052806040518060400160405280600481526020017f506570650000000000000000000000000000000000000000000000000000000081525081526020016040518060400160405280600481526020017f546f61640000000000000000000000000000000000000000000000000000000081525081526020016040518060400160405280600481526020017f4b6f6e670000000000000000000000000000000000000000000000000000000081525081526020016040518060400160405280600481526020017f4d6963650000000000000000000000000000000000000000000000000000000081525081526020016040518060400160405280600781526020017f556e69636f726e0000000000000000000000000000000000000000000000000081525081526020016040518060400160405280600381526020017f4170650000000000000000000000000000000000000000000000000000000000815250815250600c906006620005e592919062000ba5565b506040518060c001604052806040518060400160405280600481526020017f656174730000000000000000000000000000000000000000000000000000000081525081526020016040518060400160405280600581526020017f706c61797300000000000000000000000000000000000000000000000000000081525081526020016040518060400160405280600581526020017f73686f777300000000000000000000000000000000000000000000000000000081525081526020016040518060400160405280600581526020017f6d616b657300000000000000000000000000000000000000000000000000000081525081526020016040518060400160405280600781526020017f70756e636865730000000000000000000000000000000000000000000000000081525081526020016040518060400160405280600681526020017f7377696e67730000000000000000000000000000000000000000000000000000815250815250600d9060066200076392919062000ba5565b506040518060c001604052806040518060400160405280600581526020017f686561727400000000000000000000000000000000000000000000000000000081525081526020016040518060400160405280600481526020017f736869740000000000000000000000000000000000000000000000000000000081525081526020016040518060400160405280600481526020017f656767730000000000000000000000000000000000000000000000000000000081525081526020016040518060400160405280600481526020017f626162790000000000000000000000000000000000000000000000000000000081525081526020016040518060400160405280600881526020017f636f6f6c2063617400000000000000000000000000000000000000000000000081525081526020016040518060400160405280600481526020017f6d6f6f6e00000000000000000000000000000000000000000000000000000000815250815250600e906006620008e192919062000ba5565b50348015620008ef57600080fd5b506040518060400160405280600881526020017f52616e646f6d46540000000000000000000000000000000000000000000000008152506040518060400160405280600681526020017f52414e444f4d000000000000000000000000000000000000000000000000000081525081600090805190602001906200097492919062000aad565b5080600190805190602001906200098d92919062000aad565b505050620009db6040518060400160405280601e81526020017f54686973206973206d79204e465420636f6e74726163742e20576f6168210000815250620009e160201b620014381760201c565b62000dc6565b62000a8181604051602401620009f8919062000cda565b6040516020818303038152906040527f41304fac000000000000000000000000000000000000000000000000000000007bffffffffffffffffffffffffffffffffffffffffffffffffffffffff19166020820180517bffffffffffffffffffffffffffffffffffffffffffffffffffffffff838183161783525050505062000a8460201b60201c565b50565b60008151905060006a636f6e736f6c652e6c6f679050602083016000808483855afa5050505050565b82805462000abb9062000d50565b90600052602060002090601f01602090048101928262000adf576000855562000b2b565b82601f1062000afa57805160ff191683800117855562000b2b565b8280016001018555821562000b2b579182015b8281111562000b2a57825182559160200191906001019062000b0d565b5b50905062000b3a919062000c0c565b5090565b82805482825590600052602060002090810192821562000b92579160200282015b8281111562000b9157825182908051906020019062000b8092919062000aad565b509160200191906001019062000b5f565b5b50905062000ba1919062000c2b565b5090565b82805482825590600052602060002090810192821562000bf9579160200282015b8281111562000bf857825182908051906020019062000be792919062000aad565b509160200191906001019062000bc6565b5b50905062000c08919062000c2b565b5090565b5b8082111562000c2757600081600090555060010162000c0d565b5090565b5b8082111562000c4f576000818162000c45919062000c53565b5060010162000c2c565b5090565b50805462000c619062000d50565b6000825580601f1062000c75575062000c96565b601f01602090049060005260206000209081019062000c95919062000c0c565b5b50565b600062000ca68262000cfe565b62000cb2818562000d09565b935062000cc481856020860162000d1a565b62000ccf8162000db5565b840191505092915050565b6000602082019050818103600083015262000cf6818462000c99565b905092915050565b600081519050919050565b600082825260208201905092915050565b60005b8381101562000d3a57808201518184015260208101905062000d1d565b8381111562000d4a576000848401525b50505050565b6000600282049050600182168062000d6957607f821691505b6020821081141562000d805762000d7f62000d86565b5b50919050565b7f4e487b7100000000000000000000000000000000000000000000000000000000600052602260045260246000fd5b6000601f19601f8301169050919050565b613bd18062000dd66000396000f3fe608060405234801561001057600080fd5b50600436106101215760003560e01c80636ec0dfe5116100ad578063b88d4fde11610071578063b88d4fde1461031a578063c575757a14610336578063c87b56dd14610366578063e985e9c514610396578063f3808ff3146103c657610121565b80636ec0dfe51461026257806370a082311461028057806395d89b41146102b0578063a22cb465146102ce578063b187301f146102ea57610121565b8063106c8dbf116100f4578063106c8dbf146101c057806323b872dd146101ca5780632de38d68146101e657806342842e0e146102165780636352211e1461023257610121565b806301ffc9a71461012657806306fdde0314610156578063081812fc14610174578063095ea7b3146101a4575b600080fd5b610140600480360381019061013b91906126cb565b6103f6565b60405161014d9190613427565b60405180910390f35b61015e6104d8565b60405161016b9190613442565b60405180910390f35b61018e6004803603810190610189919061271d565b61056a565b60405161019b9190613397565b60405180910390f35b6101be60048036038101906101b9919061268f565b6105ef565b005b6101c8610707565b005b6101e460048036038101906101df9190612589565b610965565b005b61020060048036038101906101fb919061271d565b6109c5565b60405161020d9190613442565b60405180910390f35b610230600480360381019061022b9190612589565b610ae3565b005b61024c6004803603810190610247919061271d565b610b03565b6040516102599190613397565b60405180910390f35b61026a610bb5565b60405161027791906136c2565b60405180910390f35b61029a60048036038101906102959190612524565b610bcb565b6040516102a791906136c2565b60405180910390f35b6102b8610c83565b6040516102c59190613442565b60405180910390f35b6102e860048036038101906102e39190612653565b610d15565b005b61030460048036038101906102ff919061271d565b610e96565b6040516103119190613442565b60405180910390f35b610334600480360381019061032f91906125d8565b610fb4565b005b610350600480360381019061034b919061271d565b611016565b60405161035d9190613442565b60405180910390f35b610380600480360381019061037b919061271d565b611134565b60405161038d9190613442565b60405180910390f35b6103b060048036038101906103ab919061254d565b611286565b6040516103bd9190613427565b60405180910390f35b6103e060048036038101906103db919061271d565b61131a565b6040516103ed9190613442565b60405180910390f35b60007f80ac58cd000000000000000000000000000000000000000000000000000000007bffffffffffffffffffffffffffffffffffffffffffffffffffffffff1916827bffffffffffffffffffffffffffffffffffffffffffffffffffffffff191614806104c157507f5b5e139f000000000000000000000000000000000000000000000000000000007bffffffffffffffffffffffffffffffffffffffffffffffffffffffff1916827bffffffffffffffffffffffffffffffffffffffffffffffffffffffff1916145b806104d157506104d0826114d1565b5b9050919050565b6060600080546104e790613961565b80601f016020809104026020016040519081016040528092919081815260200182805461051390613961565b80156105605780601f1061053557610100808354040283529160200191610560565b820191906000526020600020905b81548152906001019060200180831161054357829003601f168201915b5050505050905090565b60006105758261153b565b6105b4576040517f08c379a00000000000000000000000000000000000000000000000000000000081526004016105ab90613622565b60405180910390fd5b6004600083815260200190815260200160002060009054906101000a900473ffffffffffffffffffffffffffffffffffffffff169050919050565b60006105fa82610b03565b90508073ffffffffffffffffffffffffffffffffffffffff168373ffffffffffffffffffffffffffffffffffffffff16141561066b576040517f08c379a000000000000000000000000000000000000000000000000000000000815260040161066290613682565b60405180910390fd5b8073ffffffffffffffffffffffffffffffffffffffff1661068a6115a7565b73ffffffffffffffffffffffffffffffffffffffff1614806106b957506106b8816106b36115a7565b611286565b5b6106f8576040517f08c379a00000000000000000000000000000000000000000000000000000000081526004016106ef90613542565b60405180910390fd5b61070283836115af565b505050565b60326107136007611668565b141580610729575060326107276007611668565b115b610768576040517f08c379a000000000000000000000000000000000000000000000000000000000815260040161075f90613562565b60405180910390fd5b60006107746007611668565b90506000610781826109c5565b9050600061078e83610e96565b9050600061079b84611016565b905060008383836040516020016107b493929190613216565b604051602081830303815290604052905060006107d08661131a565b905060006008600983600a866040516020016107f0959493929190613247565b604051602081830303815290604052905060006108358461081084611676565b6040516020016108219291906132ec565b604051602081830303815290604052611676565b905060008160405160200161084a9190613353565b60405160208183030381529060405290506108996040518060400160405280601581526020017f0a2d2d2d2d2d2d2d2d2d2d2d2d2d2d2d2d2d2d2d2d0000000000000000000000815250611438565b6108a281611438565b6108e06040518060400160405280601581526020017f2d2d2d2d2d2d2d2d2d2d2d2d2d2d2d2d2d2d2d2d0a0000000000000000000000815250611438565b6108ea338a611834565b6108f48982611852565b6108fe60076118c6565b610921604051806060016040528060258152602001613b37602591398a336118dc565b7fc4bfde62142d3a3f5c4e5384a854a7d0b4c605a18dd746c1fd3fff8ebc3fc492338a6040516109529291906133fe565b60405180910390a1505050505050505050565b6109766109706115a7565b8261197b565b6109b5576040517f08c379a00000000000000000000000000000000000000000000000000000000081526004016109ac906136a2565b60405180910390fd5b6109c0838383611a59565b505050565b606060006109f96109d584611cb5565b6040516020016109e59190613331565b604051602081830303815290604052611e62565b9050600c8054905081610a0c91906139dc565b9050600c8181548110610a48577f4e487b7100000000000000000000000000000000000000000000000000000000600052603260045260246000fd5b906000526020600020018054610a5d90613961565b80601f0160208091040260200160405190810160405280929190818152602001828054610a8990613961565b8015610ad65780601f10610aab57610100808354040283529160200191610ad6565b820191906000526020600020905b815481529060010190602001808311610ab957829003601f168201915b5050505050915050919050565b610afe83838360405180602001604052806000815250610fb4565b505050565b6000806002600084815260200190815260200160002060009054906101000a900473ffffffffffffffffffffffffffffffffffffffff169050600073ffffffffffffffffffffffffffffffffffffffff168173ffffffffffffffffffffffffffffffffffffffff161415610bac576040517f08c379a0000000000000000000000000000000000000000000000000000000008152600401610ba3906135a2565b60405180910390fd5b80915050919050565b600080610bc26007611668565b90508091505090565b60008073ffffffffffffffffffffffffffffffffffffffff168273ffffffffffffffffffffffffffffffffffffffff161415610c3c576040517f08c379a0000000000000000000000000000000000000000000000000000000008152600401610c3390613582565b60405180910390fd5b600360008373ffffffffffffffffffffffffffffffffffffffff1673ffffffffffffffffffffffffffffffffffffffff168152602001908152602001600020549050919050565b606060018054610c9290613961565b80601f0160208091040260200160405190810160405280929190818152602001828054610cbe90613961565b8015610d0b5780601f10610ce057610100808354040283529160200191610d0b565b820191906000526020600020905b815481529060010190602001808311610cee57829003601f168201915b5050505050905090565b610d1d6115a7565b73ffffffffffffffffffffffffffffffffffffffff168273ffffffffffffffffffffffffffffffffffffffff161415610d8b576040517f08c379a0000000000000000000000000000000000000000000000000000000008152600401610d8290613502565b60405180910390fd5b8060056000610d986115a7565b73ffffffffffffffffffffffffffffffffffffffff1673ffffffffffffffffffffffffffffffffffffffff16815260200190815260200160002060008473ffffffffffffffffffffffffffffffffffffffff1673ffffffffffffffffffffffffffffffffffffffff16815260200190815260200160002060006101000a81548160ff0219169083151502179055508173ffffffffffffffffffffffffffffffffffffffff16610e456115a7565b73ffffffffffffffffffffffffffffffffffffffff167f17307eab39ab6107e8899845ad3d59bd9653f200f220920489ca2b5937696c3183604051610e8a9190613427565b60405180910390a35050565b60606000610eca610ea684611cb5565b604051602001610eb691906132ca565b604051602081830303815290604052611e62565b9050600d8054905081610edd91906139dc565b9050600d8181548110610f19577f4e487b7100000000000000000000000000000000000000000000000000000000600052603260045260246000fd5b906000526020600020018054610f2e90613961565b80601f0160208091040260200160405190810160405280929190818152602001828054610f5a90613961565b8015610fa75780601f10610f7c57610100808354040283529160200191610fa7565b820191906000526020600020905b815481529060010190602001808311610f8a57829003601f168201915b5050505050915050919050565b610fc5610fbf6115a7565b8361197b565b611004576040517f08c379a0000000000000000000000000000000000000000000000000000000008152600401610ffb906136a2565b60405180910390fd5b61101084848484611e95565b50505050565b6060600061104a61102684611cb5565b60405160200161103691906132a8565b604051602081830303815290604052611e62565b9050600e805490508161105d91906139dc565b9050600e8181548110611099577f4e487b7100000000000000000000000000000000000000000000000000000000600052603260045260246000fd5b9060005260206000200180546110ae90613961565b80601f01602080910402602001604051908101604052809291908181526020018280546110da90613961565b80156111275780601f106110fc57610100808354040283529160200191611127565b820191906000526020600020905b81548152906001019060200180831161110a57829003601f168201915b5050505050915050919050565b606061113f8261153b565b61117e576040517f08c379a000000000000000000000000000000000000000000000000000000000815260040161117590613602565b60405180910390fd5b600060066000848152602001908152602001600020805461119e90613961565b80601f01602080910402602001604051908101604052809291908181526020018280546111ca90613961565b80156112175780601f106111ec57610100808354040283529160200191611217565b820191906000526020600020905b8154815290600101906020018083116111fa57829003601f168201915b505050505090506000611228611ef1565b905060008151141561123e578192505050611281565b60008251111561127357808260405160200161125b9291906131f2565b60405160208183030381529060405292505050611281565b61127c84611f08565b925050505b919050565b6000600560008473ffffffffffffffffffffffffffffffffffffffff1673ffffffffffffffffffffffffffffffffffffffff16815260200190815260200160002060008373ffffffffffffffffffffffffffffffffffffffff1673ffffffffffffffffffffffffffffffffffffffff16815260200190815260200160002060009054906101000a900460ff16905092915050565b6060600061134e61132a84611cb5565b60405160200161133a9190613375565b604051602081830303815290604052611e62565b9050600b805490508161136191906139dc565b9050600b818154811061139d577f4e487b7100000000000000000000000000000000000000000000000000000000600052603260045260246000fd5b9060005260206000200180546113b290613961565b80601f01602080910402602001604051908101604052809291908181526020018280546113de90613961565b801561142b5780601f106114005761010080835404028352916020019161142b565b820191906000526020600020905b81548152906001019060200180831161140e57829003601f168201915b5050505050915050919050565b6114ce8160405160240161144c9190613442565b6040516020818303038152906040527f41304fac000000000000000000000000000000000000000000000000000000007bffffffffffffffffffffffffffffffffffffffffffffffffffffffff19166020820180517bffffffffffffffffffffffffffffffffffffffffffffffffffffffff8381831617835250505050611faf565b50565b60007f01ffc9a7000000000000000000000000000000000000000000000000000000007bffffffffffffffffffffffffffffffffffffffffffffffffffffffff1916827bffffffffffffffffffffffffffffffffffffffffffffffffffffffff1916149050919050565b60008073ffffffffffffffffffffffffffffffffffffffff166002600084815260200190815260200160002060009054906101000a900473ffffffffffffffffffffffffffffffffffffffff1673ffffffffffffffffffffffffffffffffffffffff1614159050919050565b600033905090565b816004600083815260200190815260200160002060006101000a81548173ffffffffffffffffffffffffffffffffffffffff021916908373ffffffffffffffffffffffffffffffffffffffff160217905550808273ffffffffffffffffffffffffffffffffffffffff1661162283610b03565b73ffffffffffffffffffffffffffffffffffffffff167f8c5be1e5ebec7d5bd14f71427d1e84f3dd0314c0f7b2291e5b200ac8c7c3b92560405160405180910390a45050565b600081600001549050919050565b6060600082519050600081141561169f576040518060200160405280600081525091505061182f565b600060036002836116b09190613796565b6116ba91906137ec565b60046116c6919061381d565b905060006020826116d79190613796565b67ffffffffffffffff811115611716577f4e487b7100000000000000000000000000000000000000000000000000000000600052604160045260246000fd5b6040519080825280601f01601f1916602001820160405280156117485781602001600182028036833780820191505090505b5090506000604051806060016040528060408152602001613b5c604091399050600181016020830160005b868110156117ec5760038101905062ffffff818a015116603f8160121c168401518060081b905060ff603f83600c1c1686015116810190508060081b905060ff603f8360061c1686015116810190508060081b905060ff603f831686015116810190508060e01b90508084526004840193505050611773565b506003860660018114611806576002811461181657611821565b613d3d60f01b6002830352611821565b603d60f81b60018303525b508484525050819450505050505b919050565b61184e828260405180602001604052806000815250611fd8565b5050565b61185b8261153b565b61189a576040517f08c379a0000000000000000000000000000000000000000000000000000000008152600401611891906135c2565b60405180910390fd5b806006600084815260200190815260200160002090805190602001906118c19291906123b0565b505050565b6001816000016000828254019250508190555050565b6119768383836040516024016118f493929190613464565b6040516020818303038152906040527fe3849f79000000000000000000000000000000000000000000000000000000007bffffffffffffffffffffffffffffffffffffffffffffffffffffffff19166020820180517bffffffffffffffffffffffffffffffffffffffffffffffffffffffff8381831617835250505050611faf565b505050565b60006119868261153b565b6119c5576040517f08c379a00000000000000000000000000000000000000000000000000000000081526004016119bc90613522565b60405180910390fd5b60006119d083610b03565b90508073ffffffffffffffffffffffffffffffffffffffff168473ffffffffffffffffffffffffffffffffffffffff161480611a3f57508373ffffffffffffffffffffffffffffffffffffffff16611a278461056a565b73ffffffffffffffffffffffffffffffffffffffff16145b80611a505750611a4f8185611286565b5b91505092915050565b8273ffffffffffffffffffffffffffffffffffffffff16611a7982610b03565b73ffffffffffffffffffffffffffffffffffffffff1614611acf576040517f08c379a0000000000000000000000000000000000000000000000000000000008152600401611ac690613642565b60405180910390fd5b600073ffffffffffffffffffffffffffffffffffffffff168273ffffffffffffffffffffffffffffffffffffffff161415611b3f576040517f08c379a0000000000000000000000000000000000000000000000000000000008152600401611b36906134e2565b60405180910390fd5b611b4a838383612033565b611b556000826115af565b6001600360008573ffffffffffffffffffffffffffffffffffffffff1673ffffffffffffffffffffffffffffffffffffffff1681526020019081526020016000206000828254611ba59190613877565b925050819055506001600360008473ffffffffffffffffffffffffffffffffffffffff1673ffffffffffffffffffffffffffffffffffffffff1681526020019081526020016000206000828254611bfc9190613796565b92505081905550816002600083815260200190815260200160002060006101000a81548173ffffffffffffffffffffffffffffffffffffffff021916908373ffffffffffffffffffffffffffffffffffffffff160217905550808273ffffffffffffffffffffffffffffffffffffffff168473ffffffffffffffffffffffffffffffffffffffff167fddf252ad1be2c89b69c2b068fc378daa952ba7f163c4a11628f55a4df523b3ef60405160405180910390a4505050565b60606000821415611cfd576040518060400160405280600181526020017f30000000000000000000000000000000000000000000000000000000000000008152509050611e5d565b600082905060005b60008214611d2f578080611d1890613993565b915050600a82611d2891906137ec565b9150611d05565b60008167ffffffffffffffff811115611d71577f4e487b7100000000000000000000000000000000000000000000000000000000600052604160045260246000fd5b6040519080825280601f01601f191660200182016040528015611da35781602001600182028036833780820191505090505b5090505b60008514611e5657600182611dbc9190613877565b9150600a85611dcb91906139dc565b6030611dd79190613796565b60f81b818381518110611e13577f4e487b7100000000000000000000000000000000000000000000000000000000600052603260045260246000fd5b60200101907effffffffffffffffffffffffffffffffffffffffffffffffffffffffffffff1916908160001a905350600a85611e4f91906137ec565b9450611da7565b8093505050505b919050565b600081604051602001611e7591906131db565b6040516020818303038152906040528051906020012060001c9050919050565b611ea0848484611a59565b611eac84848484612038565b611eeb576040517f08c379a0000000000000000000000000000000000000000000000000000000008152600401611ee2906134a2565b60405180910390fd5b50505050565b606060405180602001604052806000815250905090565b6060611f138261153b565b611f52576040517f08c379a0000000000000000000000000000000000000000000000000000000008152600401611f4990613662565b60405180910390fd5b6000611f5c611ef1565b90506000815111611f7c5760405180602001604052806000815250611fa7565b80611f8684611cb5565b604051602001611f979291906131f2565b6040516020818303038152906040525b915050919050565b60008151905060006a636f6e736f6c652e6c6f679050602083016000808483855afa5050505050565b611fe283836121cf565b611fef6000848484612038565b61202e576040517f08c379a0000000000000000000000000000000000000000000000000000000008152600401612025906134a2565b60405180910390fd5b505050565b505050565b60006120598473ffffffffffffffffffffffffffffffffffffffff1661239d565b156121c2578373ffffffffffffffffffffffffffffffffffffffff1663150b7a026120826115a7565b8786866040518563ffffffff1660e01b81526004016120a494939291906133b2565b602060405180830381600087803b1580156120be57600080fd5b505af19250505080156120ef57506040513d601f19601f820116820180604052508101906120ec91906126f4565b60015b612172573d806000811461211f576040519150601f19603f3d011682016040523d82523d6000602084013e612124565b606091505b5060008151141561216a576040517f08c379a0000000000000000000000000000000000000000000000000000000008152600401612161906134a2565b60405180910390fd5b805181602001fd5b63150b7a0260e01b7bffffffffffffffffffffffffffffffffffffffffffffffffffffffff1916817bffffffffffffffffffffffffffffffffffffffffffffffffffffffff1916149150506121c7565b600190505b949350505050565b600073ffffffffffffffffffffffffffffffffffffffff168273ffffffffffffffffffffffffffffffffffffffff16141561223f576040517f08c379a0000000000000000000000000000000000000000000000000000000008152600401612236906135e2565b60405180910390fd5b6122488161153b565b15612288576040517f08c379a000000000000000000000000000000000000000000000000000000000815260040161227f906134c2565b60405180910390fd5b61229460008383612033565b6001600360008473ffffffffffffffffffffffffffffffffffffffff1673ffffffffffffffffffffffffffffffffffffffff16815260200190815260200160002060008282546122e49190613796565b92505081905550816002600083815260200190815260200160002060006101000a81548173ffffffffffffffffffffffffffffffffffffffff021916908373ffffffffffffffffffffffffffffffffffffffff160217905550808273ffffffffffffffffffffffffffffffffffffffff16600073ffffffffffffffffffffffffffffffffffffffff167fddf252ad1be2c89b69c2b068fc378daa952ba7f163c4a11628f55a4df523b3ef60405160405180910390a45050565b600080823b905060008111915050919050565b8280546123bc90613961565b90600052602060002090601f0160209004810192826123de5760008555612425565b82601f106123f757805160ff1916838001178555612425565b82800160010185558215612425579182015b82811115612424578251825591602001919060010190612409565b5b5090506124329190612436565b5090565b5b8082111561244f576000816000905550600101612437565b5090565b60006124666124618461370e565b6136dd565b90508281526020810184848401111561247e57600080fd5b61248984828561391f565b509392505050565b6000813590506124a081613ada565b92915050565b6000813590506124b581613af1565b92915050565b6000813590506124ca81613b08565b92915050565b6000815190506124df81613b08565b92915050565b600082601f8301126124f657600080fd5b8135612506848260208601612453565b91505092915050565b60008135905061251e81613b1f565b92915050565b60006020828403121561253657600080fd5b600061254484828501612491565b91505092915050565b6000806040838503121561256057600080fd5b600061256e85828601612491565b925050602061257f85828601612491565b9150509250929050565b60008060006060848603121561259e57600080fd5b60006125ac86828701612491565b93505060206125bd86828701612491565b92505060406125ce8682870161250f565b9150509250925092565b600080600080608085870312156125ee57600080fd5b60006125fc87828801612491565b945050602061260d87828801612491565b935050604061261e8782880161250f565b925050606085013567ffffffffffffffff81111561263b57600080fd5b612647878288016124e5565b91505092959194509250565b6000806040838503121561266657600080fd5b600061267485828601612491565b9250506020612685858286016124a6565b9150509250929050565b600080604083850312156126a257600080fd5b60006126b085828601612491565b92505060206126c18582860161250f565b9150509250929050565b6000602082840312156126dd57600080fd5b60006126eb848285016124bb565b91505092915050565b60006020828403121561270657600080fd5b6000612714848285016124d0565b91505092915050565b60006020828403121561272f57600080fd5b600061273d8482850161250f565b91505092915050565b61274f816138ab565b82525050565b61275e816138bd565b82525050565b600061276f82613753565b6127798185613769565b935061278981856020860161392e565b61279281613ac9565b840191505092915050565b60006127a88261375e565b6127b2818561377a565b93506127c281856020860161392e565b6127cb81613ac9565b840191505092915050565b60006127e18261375e565b6127eb818561378b565b93506127fb81856020860161392e565b80840191505092915050565b6000815461281481613961565b61281e818661378b565b94506001821660008114612839576001811461284a5761287d565b60ff1983168652818601935061287d565b6128538561373e565b60005b8381101561287557815481890152600182019150602081019050612856565b838801955050505b50505092915050565b600061289360328361377a565b91507f4552433732313a207472616e7366657220746f206e6f6e20455243373231526560008301527f63656976657220696d706c656d656e74657200000000000000000000000000006020830152604082019050919050565b60006128f960668361378b565b91507f222c20226465736372697074696f6e223a20224120686967686c79206163636c60008301527f61696d656420636f6c6c656374696f6e206f662072616e646f6d205356472e2260208301527f2c2022696d616765223a2022646174613a696d6167652f7376672b786d6c3b6260408301527f61736536342c00000000000000000000000000000000000000000000000000006060830152606682019050919050565b60006129ab601c8361377a565b91507f4552433732313a20746f6b656e20616c7265616479206d696e746564000000006000830152602082019050919050565b60006129eb600a8361378b565b91507f54484952445f574f5244000000000000000000000000000000000000000000006000830152600a82019050919050565b6000612a2b60248361377a565b91507f4552433732313a207472616e7366657220746f20746865207a65726f2061646460008301527f72657373000000000000000000000000000000000000000000000000000000006020830152604082019050919050565b6000612a9160198361377a565b91507f4552433732313a20617070726f766520746f2063616c6c6572000000000000006000830152602082019050919050565b6000612ad1600b8361378b565b91507f5345434f4e445f574f52440000000000000000000000000000000000000000006000830152600b82019050919050565b6000612b1160098361378b565b91507f273e3c2f706174683e00000000000000000000000000000000000000000000006000830152600982019050919050565b6000612b51602c8361377a565b91507f4552433732313a206f70657261746f7220717565727920666f72206e6f6e657860008301527f697374656e7420746f6b656e00000000000000000000000000000000000000006020830152604082019050919050565b6000612bb7600d8361378b565b91507f3c2f746578743e3c2f7376673e000000000000000000000000000000000000006000830152600d82019050919050565b6000612bf760388361377a565b91507f4552433732313a20617070726f76652063616c6c6572206973206e6f74206f7760008301527f6e6572206e6f7220617070726f76656420666f7220616c6c00000000000000006020830152604082019050919050565b6000612c5d60228361377a565b91507f5468697320707572636861736520776f756c642065786365656420746f74616c60008301527f202e0000000000000000000000000000000000000000000000000000000000006020830152604082019050919050565b6000612cc3602a8361377a565b91507f4552433732313a2062616c616e636520717565727920666f7220746865207a6560008301527f726f2061646472657373000000000000000000000000000000000000000000006020830152604082019050919050565b6000612d2960298361377a565b91507f4552433732313a206f776e657220717565727920666f72206e6f6e657869737460008301527f656e7420746f6b656e00000000000000000000000000000000000000000000006020830152604082019050919050565b6000612d8f602e8361377a565b91507f45524337323155524953746f726167653a2055524920736574206f66206e6f6e60008301527f6578697374656e7420746f6b656e0000000000000000000000000000000000006020830152604082019050919050565b6000612df560028361378b565b91507f227d0000000000000000000000000000000000000000000000000000000000006000830152600282019050919050565b6000612e3560208361377a565b91507f4552433732313a206d696e7420746f20746865207a65726f20616464726573736000830152602082019050919050565b6000612e7560318361377a565b91507f45524337323155524953746f726167653a2055524920717565727920666f722060008301527f6e6f6e6578697374656e7420746f6b656e0000000000000000000000000000006020830152604082019050919050565b6000612edb602c8361377a565b91507f4552433732313a20617070726f76656420717565727920666f72206e6f6e657860008301527f697374656e7420746f6b656e00000000000000000000000000000000000000006020830152604082019050919050565b6000612f4160298361377a565b91507f4552433732313a207472616e73666572206f6620746f6b656e2074686174206960008301527f73206e6f74206f776e00000000000000000000000000000000000000000000006020830152604082019050919050565b6000612fa7602f8361377a565b91507f4552433732314d657461646174613a2055524920717565727920666f72206e6f60008301527f6e6578697374656e7420746f6b656e00000000000000000000000000000000006020830152604082019050919050565b600061300d600a8361378b565b91507f7b226e616d65223a2022000000000000000000000000000000000000000000006000830152600a82019050919050565b600061304d60218361377a565b91507f4552433732313a20617070726f76616c20746f2063757272656e74206f776e6560008301527f72000000000000000000000000000000000000000000000000000000000000006020830152604082019050919050565b60006130b3600a8361378b565b91507f46495253545f574f5244000000000000000000000000000000000000000000006000830152600a82019050919050565b60006130f3601d8361378b565b91507f646174613a6170706c69636174696f6e2f6a736f6e3b6261736536342c0000006000830152601d82019050919050565b600061313360318361377a565b91507f4552433732313a207472616e736665722063616c6c6572206973206e6f74206f60008301527f776e6572206e6f7220617070726f7665640000000000000000000000000000006020830152604082019050919050565b600061319960058361378b565b91507f626c61636b0000000000000000000000000000000000000000000000000000006000830152600582019050919050565b6131d581613915565b82525050565b60006131e782846127d6565b915081905092915050565b60006131fe82856127d6565b915061320a82846127d6565b91508190509392505050565b600061322282866127d6565b915061322e82856127d6565b915061323a82846127d6565b9150819050949350505050565b60006132538288612807565b915061325f8287612807565b915061326b82866127d6565b915061327682612b04565b91506132828285612807565b915061328e82846127d6565b915061329982612baa565b91508190509695505050505050565b60006132b3826129de565b91506132bf82846127d6565b915081905092915050565b60006132d582612ac4565b91506132e182846127d6565b915081905092915050565b60006132f782613000565b915061330382856127d6565b915061330e826128ec565b915061331a82846127d6565b915061332582612de8565b91508190509392505050565b600061333c826130a6565b915061334882846127d6565b915081905092915050565b600061335e826130e6565b915061336a82846127d6565b915081905092915050565b60006133808261318c565b915061338c82846127d6565b915081905092915050565b60006020820190506133ac6000830184612746565b92915050565b60006080820190506133c76000830187612746565b6133d46020830186612746565b6133e160408301856131cc565b81810360608301526133f38184612764565b905095945050505050565b60006040820190506134136000830185612746565b61342060208301846131cc565b9392505050565b600060208201905061343c6000830184612755565b92915050565b6000602082019050818103600083015261345c818461279d565b905092915050565b6000606082019050818103600083015261347e818661279d565b905061348d60208301856131cc565b61349a6040830184612746565b949350505050565b600060208201905081810360008301526134bb81612886565b9050919050565b600060208201905081810360008301526134db8161299e565b9050919050565b600060208201905081810360008301526134fb81612a1e565b9050919050565b6000602082019050818103600083015261351b81612a84565b9050919050565b6000602082019050818103600083015261353b81612b44565b9050919050565b6000602082019050818103600083015261355b81612bea565b9050919050565b6000602082019050818103600083015261357b81612c50565b9050919050565b6000602082019050818103600083015261359b81612cb6565b9050919050565b600060208201905081810360008301526135bb81612d1c565b9050919050565b600060208201905081810360008301526135db81612d82565b9050919050565b600060208201905081810360008301526135fb81612e28565b9050919050565b6000602082019050818103600083015261361b81612e68565b9050919050565b6000602082019050818103600083015261363b81612ece565b9050919050565b6000602082019050818103600083015261365b81612f34565b9050919050565b6000602082019050818103600083015261367b81612f9a565b9050919050565b6000602082019050818103600083015261369b81613040565b9050919050565b600060208201905081810360008301526136bb81613126565b9050919050565b60006020820190506136d760008301846131cc565b92915050565b6000604051905081810181811067ffffffffffffffff8211171561370457613703613a9a565b5b8060405250919050565b600067ffffffffffffffff82111561372957613728613a9a565b5b601f19601f8301169050602081019050919050565b60008190508160005260206000209050919050565b600081519050919050565b600081519050919050565b600082825260208201905092915050565b600082825260208201905092915050565b600081905092915050565b60006137a182613915565b91506137ac83613915565b9250827fffffffffffffffffffffffffffffffffffffffffffffffffffffffffffffffff038211156137e1576137e0613a0d565b5b828201905092915050565b60006137f782613915565b915061380283613915565b92508261381257613811613a3c565b5b828204905092915050565b600061382882613915565b915061383383613915565b9250817fffffffffffffffffffffffffffffffffffffffffffffffffffffffffffffffff048311821515161561386c5761386b613a0d565b5b828202905092915050565b600061388282613915565b915061388d83613915565b9250828210156138a05761389f613a0d565b5b828203905092915050565b60006138b6826138f5565b9050919050565b60008115159050919050565b60007fffffffff0000000000000000000000000000000000000000000000000000000082169050919050565b600073ffffffffffffffffffffffffffffffffffffffff82169050919050565b6000819050919050565b82818337600083830152505050565b60005b8381101561394c578082015181840152602081019050613931565b8381111561395b576000848401525b50505050565b6000600282049050600182168061397957607f821691505b6020821081141561398d5761398c613a6b565b5b50919050565b600061399e82613915565b91507fffffffffffffffffffffffffffffffffffffffffffffffffffffffffffffffff8214156139d1576139d0613a0d565b5b600182019050919050565b60006139e782613915565b91506139f283613915565b925082613a0257613a01613a3c565b5b828206905092915050565b7f4e487b7100000000000000000000000000000000000000000000000000000000600052601160045260246000fd5b7f4e487b7100000000000000000000000000000000000000000000000000000000600052601260045260246000fd5b7f4e487b7100000000000000000000000000000000000000000000000000000000600052602260045260246000fd5b7f4e487b7100000000000000000000000000000000000000000000000000000000600052604160045260246000fd5b6000601f19601f8301169050919050565b613ae3816138ab565b8114613aee57600080fd5b50565b613afa816138bd565b8114613b0557600080fd5b50565b613b11816138c9565b8114613b1c57600080fd5b50565b613b2881613915565b8114613b3357600080fd5b5056fe416e204e465420772f20494420257320686173206265656e206d696e74656420746f2025734142434445464748494a4b4c4d4e4f505152535455565758595a6162636465666768696a6b6c6d6e6f707172737475767778797a303132333435363738392b2fa2646970667358221220782fa793ca899972c9da0d7ab45f716593af58131d21f5bb749cb4cdb321e0a864736f6c634300080000333c7465787420783d273130302720793d273130302720666f6e742d73697a653d273230272066696c6c3d27626c756527207374726f6b653d27626c61636b27207374726f6b652d77696474683d2731273e3c7061746820643d27204d20302c2036362e35204320302c2034342e35353439393939393939393939392034342e35353439393939393939393939392c20302036362e352c20302053203133332c2034342e3535343939393939393939393939203133332c2036362e352038382e34343530303030303030303030312c203133332036362e352c2031333320302c2038382e343435303030303030303030303120302c2036362e35202720207472616e73666f726d3d27726f74617465282032382c203130302c203130302029207472616e736c617465282033332e352033332e352029272066696c6c3d273c73766720786d6c6e733d27687474703a2f2f7777772e77332e6f72672f323030302f737667272076696577626f783d273020302034303020343030273e",
  "linkReferences": {},
  "deployedLinkReferences": {}
}